:0A0F95000001020203030404050535
:1005FF00E4F513F512F511F510C20BC208C20AC2C9
:10060F00091207AE7E017F008E658F66756D0175CD
:10061F006E1275630175641C756B01756C6F756F68
:10062F000175709DEE54E070030207457514007557
:10063F0015808E168F17C374C59FFF74019ECF242C
:10064F0002CF3400FEE48F0F8E0EF50DF50CF50B77
:10065F00F50AF509F508AF0FAE0EAD0DAC0CAB0BEF
:10066F00AA0AA909A808C3120C095026E515250BDB
:10067F00F582E514350AF58374CDF0E50B2401F509
:10068F000BE4350AF50AE43509F509E43508F508F0
:10069F0080C4E4F50BF50AF509F508AF0FAE0EAD02
:1006AF000DAC0CAB0BAA0AA909A808C3120C095070
:1006BF0033E517250BF582E516350AF583E0FFE5DF
:1006CF0015250BF582E514350AF583EFF0E50B24BC
:1006DF0001F50BE4350AF50AE43509F509E43508A7
:1006EF00F50880B785146585156674002480FF743E
:1006FF000134FFFEC3E56E9FF56EE56D9EF56DC38C
:10070F00E5689FF568E5679EF567C3E56A9FF56A3B
:10071F00E5699EF569C3E5649FF564E5639EF5633E
:10072F00C3E56C9FF56CE56B9EF56BC3E5709FF5AC
:10073F0070E56F9EF56FD2E843D82090E668E044ED
:10074F0009F090E65CE0443DF0D2AF90E680E02007
:10075F00E105D20C120E3790E680E054F7F0538E7D
:10076F00F8C20B120FA73009051201C7C209300BCF
:10077F0029120FB35024C20B120F0420081690E653
:10078F0082E030E704E020E1EF90E682E030E6041B
:0F079F00E020E0E41209D3120FB5120B4480C71B
:1001C70090E6B9E070030202781470030202F52486
:1001D700FE700302037824FB70030202721470039B
:1001E70002026C146073146076240560030203D75F
:1001F700120FB740030203E390E6BBE024FE602240
:1002070014603324FD601114602224067048E565EC
:1002170090E6B3F0E5668037E56D90E6B3F0E56EFE
:10022700802DE56790E6B3F0E5688023E56990E601
:10023700B3F0E56A801990E6BAE0FF120E66AA06E7
:10024700A9077B01EA494B600DEE90E6B3F0EF900A
:10025700E6B4F00203E30203DC120F730203E312B6
:100267000F850203E3120F9F0203E3120F610203DC
:10027700E3120FB940030203E390E6B8E0247F607E
:100287001514601924027063A208E43325E0FFA265
:100297000AE4334F8041E490E740F0803F90E6BCAA
:1002A700E0547EFF7E00E0D394807C0040047D0113
:1002B70080027D00EC4EFEED4F2495F582740F3ED3
:1002C700F583E493FF3395E0FEEF24A1FFEE34E6D8
:1002D7008F82F583E0540190E740F0E4A3F090E6C5
:1002E7008AF090E68B7402F00203E30203DC120F3C
:1002F700BB40030203E390E6B8E024FE6016240245
:1003070060030203E390E6BAE0B40105C208020302
:10031700E30203DC90E6BAE0705590E6BCE0547E59
:10032700FF7E00E0D394807C0040047D0180027D45
:1003370000EC4EFEED4F2495F582740F3EF583E4F5
:1003470093FF3395E0FEEF24A1FFEE34E68F82F5AD
:1003570083E054FEF090E6BCE05480131313541F5F
:10036700FFE0540F2F90E683F0E04420F0806D808B
:1003770064120FBD506690E6B8E024FE60192402AF
:10038700705A90E6BAE0B40104D208804F90E6BAFA
:10039700E064026047803E90E6BCE0547EFF7E004A
:1003A700E0D394807C0040047D0180027D00EC4E08
:1003B700FEED4F2495F582740F3EF583E493FF33EA
:1003C70095E0FEEF24A1FFEE34E68F82F5838008E7
:1003D7001203EB500790E6A0E04401F090E6A0E09E
:0303E7004480F05F
:0103EA0022F0
:03003300020FAF0A
:040FAF0053D8EF32F2
:100100001201000200000040091219A100000102C2
:1001100000010A060002000000400100090253002D
:1001200001010080320904000004FF0000000705FF
:100130000201000C0107058601000C010705810280
:10014000000200070501020002000904000104FF8B
:1001500000000007050201000401070586010004F4
:1001600001070581020002000705010200020009E3
:10017000022E00010100A0320904000004FF00006B
:100180000007050201FF030107050601FF03010740
:100190000581024000000705010240000004030938
:1001A000041003430079007000720065007300734F
:1001B000001403430059002D0053007400720065C1
:0701C0000061006D0000006A
:0600F900011B00011C00C8
:1003EB0090E6BAE0F51890E6B9E0245570030204E4
:1003FB00FD147003020564240260030205FDE4F59D
:10040B001C90E6B8E06440600302049590E6BBE004
:10041B00B408005069900427F828287302043F029F
:10042B00044702045B02046302046B0204730204BC
:10043B007B020483E51824FF92B08042E51824FF69
:10044B0092B1E51870047F0180027F008F1C802E13
:10045B00E51824FF92B28026E51824FF92B3801E84
:10046B00E51824FF92B78016E51824FF9283800EBF
:10047B00E51824FF92818006E51824FF9280E49012
:10048B00E68AF090E68BF00205FD90E6B8E064C0DA
:10049B0060030205FD90E6BBE0B4080050419004F8
:1004AB00B0F82828730204C80204CC0204D002045A
:1004BB00D40204D80204DC0204E00204E4A2B080FB
:1004CB001AA2B18016A2B28012A2B3800EA2B7807C
:1004DB000AA2838006A2818002A280E433F51890E1
:1004EB00E740E518F0E490E68AF090E68B04F00222
:1004FB0005FD756203E5187021F522C2B312008069
:10050B00D2B390E740E523F0A3E524F0E490E68A2C
:10051B00F090E68B7402F00205FDE51864016003B0
:10052B000205FD752220C2B3120080D2B390E740C2
:10053B00E523F0A3E524F0752240C2B3120080D26C
:10054B00B390E742E523F0A3E524F0E490E68AF0CC
:09055B0090E68B7404F00205FD2A
:10056400E4F51990E6BEE0F51AA3E090E6BBE0F5E9
:100574001890E6B8E064407036E51AD394004079E8
:10058400E490E68AF090E68BF090E6A0E020E1F9B2
:1005940090E68BE0F5197AE779407EE77F40AB0778
:1005A400FDAF18120F45C3E51A9519F51A80CA90C4
:1005B400E6B8E064C07042E51AD39400403B90E68C
:1005C400A0E020E1F9E51AC394405005851A19808A
:1005D400037519407AE779407EE77F40AB07AD1990
:1005E400AF18120F29C3E51A9519F51AE490E68A93
:0905F400F090E68BE519F080BEE1
:0105FD00C33A
:0105FE0022DA
:1007AE0090E600E054E74410F0538EF00000000095
:1007BE00E4F51DF51E75B5DF75B0FF75B289758050
:1007CE000175800990E60174A3F00000000090E628
:1007DE000B7403F00000000090E612749AF0000013
:1007EE00000090E61474DAF000000000E490E615C4
:1007FE00F090E613F090E619F00000000090E61B72
:10080E00F00000000090E61074A0F00000000090D0
:10081E00E611F00000000090E68D7401F00000007B
:10082E000090E634740BF00000000090E63574FD85
:10083E00F00000000090E6027486F090E603740E5D
:10084E00F00000000090E6047480F00000000074D8
:10085E0086F000000000E4F00000000090E6427414
:10086E0082F00000000090E61A740CF00000000008
:10087E0090E6247404F000000000E490E625F000F9
:10088E0000000090E6047480F0000000007482F016
:10089E0000000000E4F00000000090E6497482F0D1
:1008AE0000000000F00000000090E6187470F000E8
:0D08BE0000000090E65CE04402F0020FA78D
:100B4400E5BA20E17090E68DE0F562E4F518E51869
:100B5400C39562501874802518F582E434E7F58350
:100B6400E0FF74222518F8A607051880E1E51C604B
:100B74000A120C74E490E68FF08034120080E5BA17
:100B840020E22CE4F518E518C39562501874222568
:100B940018F8E6FF74C02518F582E434E7F583EF0E
:100BA400F0051880E190E68FE562F0000000009007
:050BB400E68D7401F064
:010BB9002219
:020FB300D32247
:020FB500D32245
:020FB700D32243
:080F9F0090E6BAE0F51FD32231
:100F610090E740E51FF0E490E68AF090E68B04F00C
:020F7100D32289
:0F0F850075180190E6BAE0F51B24FFB392B2D3C2
:010F9400223A
:100F730090E740E51BF0E490E68AF090E68B04F0FE
:020F8300D32277
:020FB900D32241
:020FBB00D3223F
:020FBD00D3223D
:100E9100C0E0C083C082C085C084C086758600D290
:100EA100095391EF90E65D7401F0D086D084D0852E
:070EB100D082D083D0E032B3
:100EDF00C0E0C083C082C085C084C08675860053C1
:100EEF0091EF90E65D7404F0D086D084D085D082E7
:050EFF00D083D0E032B9
:100D5800C0E0C083C082C085C084C086758600C0DC
:100D6800D0051EE51E7002051DB4F40DE51DB40185
:100D780008B287751D00751E005391EF90E65D74EB
:100D880002F0D0D0D086D084D085D082D083D0E075
:010D98003228
:100D1300C0E0C083C082C085C084C086758600855C
:100D23006B67856C68856882856783A37402F08529
:100D3300636985646A856A82856983A37407F0534E
:100D430091EF90E65D7410F0D086D084D085D08288
:050D5300D083D0E03266
:100EB800C0E0C083C082C085C084C086758600D269
:100EC8000B5391EF90E65D7408F0D086D084D085FE
:070ED800D082D083D0E0328C
:100C1A00C0E0C083C082C085C084C086758600904B
:100C2A00E680E030E72285636785646885688285A7
:100C3A006783A37402F0856B69856C6A856A82850D
:100C4A006983A37407F0800C856B67856C6885637C
:100C5A006985646A5391EF90E65D7420F0D086D07E
:0A0C6A0084D085D082D083D0E03220
:0109FF0032C5
:010FBF0032FF
:010FC00032FE
:010FC10032FD
:010FC20032FC
:010FC30032FB
:010FC40032FA
:010FC50032F9
:010FC60032F8
:010FC70032F7
:010FC80032F6
:010FC90032F5
:010FCA0032F4
:010FCB0032F3
:010FCC0032F2
:010FCD0032F1
:010FCE0032F0
:010FCF0032EF
:010FD00032EE
:010FD10032ED
:010FD20032EC
:010FD30032EB
:010FD40032EA
:010FD50032E9
:010FD60032E8
:010FD70032E7
:010FD80032E6
:010FD90032E5
:010FDA0032E4
:010FDB0032E3
:010FDC0032E2
:010FDD0032E1
:010FDE0032E0
:010FDF0032DF
:010FE00032DE
:010FE10032DD
:10008000E4FFEFC39562507074222FF8E6F520C2AA
:10009000B6A20792B4D2B6A2B59207C2B6A2069291
:1000A000B4D2B6A2B59206C2B6A20592B4D2B6A296
:1000B000B59205C2B6A20492B4D2B6A2B59204C259
:1000C000B6A20392B4D2B6A2B59203C2B6A202926D
:1000D000B4D2B6A2B59202C2B6A20192B4D2B6A26E
:1000E000B59201C2B6A20092B4D2B6A2B592007483
:0800F000222FF8A6200F808AE0
:0100F80022E5
:100C7400E4FFEFC39562505074222FF8E6F520D2BA
:100C8400B6A20792B4C2B6D2B6A20692B4C2B6D283
:100C9400B6A20592B4C2B6D2B6A20492B4C2B6D277
:100CA400B6A20392B4C2B6D2B6A20292B4C2B6D26B
:100CB400B6A20192B4C2B6D2B6A20092B4C2B674BD
:080CC400222FF8A6200F80AAE0
:010CCC002205
:03004300020A00AE
:100A0000020E9100020D5800020EDF00020EB80027
:100A1000020D1300020C1A000209FF00020FBF00B2
:100A2000020FC000020FC100020FC200020FC3007C
:100A3000020FC400020FC500020FC600020FC7005C
:100A4000020FC800020FBF00020FC900020FCA0048
:100A5000020FCB00020FCC00020FCD00020FCE0020
:100A6000020FCF00020FBF00020FBF00020FBF0036
:100A7000020FD000020FD100020FD200020FD300EC
:100A8000020FD400020FD500020FD600020FD700CC
:100A9000020FD800020FD900020FDA00020FDB00AC
:100AA000020FDC00020FDD00020FDE00020FDF008C
:080AB000020FE000020FE1005B
:1009D30090E682E030E004E020E60B90E682E0302F
:1009E300E119E030E71590E680E04401F07F147EE2
:0C09F30000120CCD90E680E054FEF022D3
:100E3700300C0990E680E0440AF0800790E680E0F5
:100E47004408F07FDC7E05120CCD90E65D74FFF060
:0F0E570090E65FF05391EF90E680E054F7F022C1
:080FA700E4F576D2E9D2AF2295
:100D9900AD0790E678E020E6F9C2E990E678E0440C
:100DA90080F0ED25E090E679F090E678E030E0F922
:100DB90090E678E04440F090E678E020E6F990E6A5
:080DC90078E030E1D6D2E92206
:100E0500AC0790E678E020E6F9E576702390E67881
:100E1500E04480F0EC25E090E679F08D71AF03A910
:100E2500077572018A738974E4F575757601D322A5
:020E3500C322D6
:100DD100AC0790E678E020E6F9E576702590E678B4
:100DE100E04480F0EC25E0440190E679F08D71AFAC
:100DF10003A9077572018A738974E4F57575760321
:040E0100D322C32213
:03004B000208CBDD
:1008CB00C0E0C083C082C085C084C086758600C06E
:1008DB00D075D000C000C001C002C003C006C00765
:1008EB0090E678E030E2067576060209B590E67878
:1008FB00E020E10CE576640260067576070209B527
:10090B00E57624FE605F14603624FE70030209A6B0
:10091B0024FC70030209B2240860030209B5AB7210
:10092B00AA73A974AF7505758F82758300120BBA04
:10093B0090E679F0E57565717070757605806B9052
:10094B00E679E0AB72AA73A974AE758E82758300DB
:10095B00120BE7757602E5716401704E90E678E054
:10096B004420F08045E57124FEB5750790E678E0EC
:10097B004420F0E57114B5750A90E678E04440F038
:10098B0075760090E679E0AB72AA73A974AE758E9A
:10099B0082758300120BE70575800F90E678E044B3
:1009AB0040F075760080037576005391DFD007D049
:1009BB0006D003D002D001D000D0D0D086D084D0C6
:0809CB0085D082D083D0E03218
:020E6600A907DA
:100E6800AE6FAF708F828E83A3E064037017AD01FD
:100E780019ED7001228F828E83E07C002FFDEC3EFD
:080E8800FEAF0580DFE4FEFF70
:010E9000223F
:100F2900120DD1E57624FA600E146006240770F3D9
:0C0F3900D322E4F576D322E4F576D3222F
:100F4500120E05E57624FA600E146006240770F388
:0C0F5500D322E4F576D322E4F576D32213
:100F040090E682E044C0F090E681F043870100005F
:040F140000000022B7
:100CCD008E188F1990E600E054187012E519240162
:100CDD00FFE43518C313F518EF13F519801590E6D9
:100CED0000E05418FFBF100BE51925E0F519E518C4
:100CFD0033F518E5191519AE18700215184E600563
:060D0D00120F1880EE2217
:100F18007400F58690FDA57C05A3E582458370F9EC
:010F280022A6
:03000000020AB839
:0C0AB800787FE4F6D8FD758176020AFF15
:100BBA00BB010CE58229F582E5833AF583E02250F0
:100BCA0006E92582F8E622BBFE06E92582F8E2223A
:0D0BDA00E58229F582E5833AF583E4932254
:100BE700F8BB010DE58229F582E5833AF583E8F044
:100BF700225006E92582C8F622BBFE05E92582C8F0
:020C0700F222D7
:100C0900EB9FF5F0EA9E42F0E99D42F0E89C45F041
:010C190022B8
:100AC4000205FFE493A3F8E493A34003F68001F244
:100AD40008DFF48029E493A3F85407240CC8C33333
:100AE400C4540F4420C8834004F456800146F6DF02
:100AF400E4800B01020408102040809000F9E47E99
:100B0400019360BCA3FF543F30E509541FFEE493F6
:100B1400A360010ECF54C025E060A840B8E493A3BD
:100B2400FAE493A3F8E493A3C8C582C8CAC583CAE8
:100B3400F0A3C8C582C8CAC583CADFE9DEE780BEA0
:0100FF000000
:00000001FF
