:0A0EB7000001020203030404050514
:1003EB00E4F513F512F511F510C20BC208C20AC2DF
:1003FB00091207067E017F008E658F66756D01758C
:10040B006E1275630175641C756B01756C6F756F7E
:10041B000175709DEE54E070030205317514007583
:10042B0015808E168F17C374C59FFF74019ECF2442
:10043B0002CF3400FEE48F0F8E0EF50DF50CF50B8D
:10044B00F50AF509F508AF0FAE0EAD0DAC0CAB0B05
:10045B00AA0AA909A808C3120B7D5026E515250B7E
:10046B00F582E514350AF58374CDF0E50B2401F51F
:10047B000BE4350AF50AE43509F509E43508F50806
:10048B0080C4E4F50BF50AF509F508AF0FAE0EAD18
:10049B000DAC0CAB0BAA0AA909A808C3120B7D5013
:1004AB0033E517250BF582E516350AF583E0FFE5F5
:1004BB0015250BF582E514350AF583EFF0E50B24D2
:1004CB0001F50BE4350AF50AE43509F509E43508BD
:1004DB00F50880B785146585156674002480FF7454
:1004EB000134FFFEC3E56E9FF56EE56D9EF56DC3A2
:1004FB00E5689FF568E5679EF567C3E56A9FF56A52
:10050B00E5699EF569C3E5649FF564E5639EF56354
:10051B00C3E56C9FF56CE56B9EF56BC3E5709FF5C2
:10052B0070E56F9EF56FD2E843D82090E668E04403
:10053B0009F090E65CE0443DF0D2AF90E680E0201D
:10054B00E105D20C120D6590E680E054F7F0538E66
:10055B00F8C20B120EC93009051201C7C209300BC4
:10056B0029120ED15024C20B120E5E20081690E6F3
:10057B0082E030E704E020E1EF90E682E030E60431
:0F058B00E020E0E4120D94120ED3120AB880C7DC
:1001C70090E6B9E070030202781470030202F52486
:1001D700FE700302037824FB70030202721470039B
:1001E70002026C146073146076240560030203D75F
:1001F700120ED540030203E390E6BBE024FE602223
:1002070014603324FD601114602224067048E565EC
:1002170090E6B3F0E5668037E56D90E6B3F0E56EFE
:10022700802DE56790E6B3F0E5688023E56990E601
:10023700B3F0E56A801990E6BAE0FF120DC0AA068E
:10024700A9077B01EA494B600DEE90E6B3F0EF900A
:10025700E6B4F00203E30203DC120E950203E31295
:100267000EA70203E3120EC10203E3120E83020379
:10027700E3120ED740030203E390E6B8E0247F6061
:100287001514601924027063A208E43325E0FFA265
:100297000AE4334F8041E490E740F0803F90E6BCAA
:1002A700E0547EFF7E00E0D394807C0040047D0113
:1002B70080027D00EC4EFEED4F24B7F582740E3EB2
:1002C700F583E493FF3395E0FEEF24A1FFEE34E6D8
:1002D7008F82F583E0540190E740F0E4A3F090E6C5
:1002E7008AF090E68B7402F00203E30203DC120E3D
:1002F700D940030203E390E6B8E024FE6016240227
:1003070060030203E390E6BAE0B40105C208020302
:10031700E30203DC90E6BAE0705590E6BCE0547E59
:10032700FF7E00E0D394807C0040047D0180027D45
:1003370000EC4EFEED4F24B7F582740E3EF583E4D4
:1003470093FF3395E0FEEF24A1FFEE34E68F82F5AD
:1003570083E054FEF090E6BCE05480131313541F5F
:10036700FFE0540F2F90E683F0E04420F0806D808B
:1003770064120EDB506690E6B8E024FE6019240292
:10038700705A90E6BAE0B40104D208804F90E6BAFA
:10039700E064026047803E90E6BCE0547EFF7E004A
:1003A700E0D394807C0040047D0180027D00EC4E08
:1003B700FEED4F24B7F582740E3EF583E493FF33C9
:1003C70095E0FEEF24A1FFEE34E68F82F5838008E7
:1003D70012059A500790E6A0E04401F090E6A0E0ED
:0303E7004480F05F
:0103EA0022F0
:030033000209FBC4
:0409FB0053D8EF32AC
:100100001201000200000040091219A100000102C2
:1001100000010A060002000000400100090253002D
:1001200001010080320904000004FF0000000705FF
:100130000201000C0107058601000C010705810280
:10014000000200070501020002000904000104FF8B
:1001500000000007050201000401070586010004F4
:1001600001070581020002000705010200020009E3
:10017000022E00010100A0320904000004FF00006B
:100180000007050201FF030107050601FF03010740
:100190000581024000000705010240000004030938
:1001A000041003430079007000720065007300734F
:1001B000001403430059002D0053007400720065C1
:0701C0000061006D0000006A
:0600F9000171000172001C
:10059A0090E6BAE0F51890E6B9E024557003020631
:1005AA00A4046003020704E4F57290E6B8E064402C
:1005BA00600302063D90E6BBE0B40800506990056E
:1005CA00CFF82828730205E70205EF0206030206A0
:1005DA000B02061302061B02062302062BE5182449
:1005EA00FF92B08042E51824FF92B1E51870047FAB
:1005FA000180027F008F72802EE51824FF92B2805C
:10060A0026E51824FF92B3801EE51824FF92B780CE
:10061A0016E51824FF9283800EE51824FF92818044
:10062A0006E51824FF9280E490E68AF090E68BF0C3
:10063A0002070490E6B8E064C0600302070490E68B
:10064A00BBE0B408005041900658F8282873020607
:10065A007002067402067802067C0206800206848C
:10066A0002068802068CA2B0801AA2B18016A2B233
:10067A008012A2B3800EA2B7800AA2838006A2814A
:10068A008002A280E433F51890E740E518F0E49080
:10069A00E68AF090E68B04F08060756203E51870D4
:1006AA0020F522C2B3120080D2B390E740E523F0CE
:1006BA00A3E524F0E490E68AF090E68B7402F080D9
:1006CA0039E51864017033752220C2B3120080D252
:1006DA00B390E740E523F0A3E524F0752240C2B3C6
:1006EA00120080D2B390E742E523F0A3E524F0E4B8
:0B06FA0090E68AF090E68B7404F0C3D9
:0107050022D1
:1007060090E600E054E54410F0538EF0000000003F
:10071600E4F573F57475B5DF75B0FF75B28975804C
:100726000175800990E60174A3F00000000090E6D0
:100736000B7403F00000000090E612749AF00000BB
:10074600000090E61474DAF000000000E490E6156C
:10075600F090E613F090E619F00000000090E61B1A
:10076600F00000000090E61074A0F0000000009079
:10077600E611F00000000090E68D7401F000000024
:100786000090E634740BF00000000090E63574FD2E
:10079600F00000000090E6027486F090E603740E06
:1007A600F00000000090E6047480F0000000007481
:1007B60086F000000000E4F00000000090E64274BD
:1007C60082F00000000090E61A740CF000000000B1
:1007D60090E6247404F000000000E490E625F000A2
:1007E60000000090E6047480F0000000007482F0BF
:1007F60000000000E4F00000000090E6497482F07A
:1008060000000000F00000000090E6187470F00090
:0B08160000000090E65CE04402F022CD
:100AB800E5BA20E17090E68DE0F562E4F518E518F6
:100AC800C39562501874802518F582E434E7F583DD
:100AD800E0FF74222518F8A607051880E1E5726082
:100AE8000A120BE8E490E68FF08034120080E5BA31
:100AF80020E22CE4F518E518C395625018742225F5
:100B080018F8E6FF74C02518F582E434E7F583EF9A
:100B1800F0051880E190E68FE562F0000000009093
:050B2800E68D7401F0F0
:010B2D0022A5
:020ED100D3222A
:020ED300D32228
:020ED500D32226
:080EC10090E6BAE0F575D322BA
:100E830090E740E575F0E490E68AF090E68B04F095
:020E9300D32268
:0F0EA70075180190E6BAE0F57124FFB392B2D34B
:010EB6002219
:100E950090E740E571F0E490E68AF090E68B04F087
:020EA500D32256
:020ED700D32224
:020ED900D32222
:020EDB00D32220
:100DEB00C0E0C083C082C085C084C086758600D237
:100DFB00095391EF90E65D7401F0D086D084D085D5
:070E0B00D082D083D0E03259
:100E3900C0E0C083C082C085C084C0867586005367
:100E490091EF90E65D7404F0D086D084D085D0828D
:050E5900D083D0E0325F
:100C8600C0E0C083C082C085C084C086758600C0AF
:100C9600D00574E57470020573B4F40DE573B40100
:100CA60008B2877573007574005391EF90E65D7412
:100CB60002F0D0D0D086D084D085D082D083D0E048
:010CC60032FB
:100C4100C0E0C083C082C085C084C086758600852F
:100C51006B67856C68856882856783A37402F085FC
:100C6100636985646A856A82856983A37407F05321
:100C710091EF90E65D7410F0D086D084D085D0825B
:050C8100D083D0E03239
:100E1200C0E0C083C082C085C084C086758600D20F
:100E22000B5391EF90E65D7408F0D086D084D085A4
:070E3200D082D083D0E03232
:100B8E00C0E0C083C082C085C084C08675860090D8
:100B9E00E680E030E7228563678564688568828534
:100BAE006783A37402F0856B69856C6A856A82859A
:100BBE006983A37407F0800C856B67856C68856309
:100BCE006985646A5391EF90E65D7420F0D086D00B
:0A0BDE0084D085D082D083D0E032AD
:0109FF0032C5
:010EDD0032E2
:010EDE0032E1
:010EDF0032E0
:010EE00032DF
:010EE10032DE
:010EE20032DD
:010EE30032DC
:010EE40032DB
:010EE50032DA
:010EE60032D9
:010EE70032D8
:010EE80032D7
:010EE90032D6
:010EEA0032D5
:010EEB0032D4
:010EEC0032D3
:010EED0032D2
:010EEE0032D1
:010EEF0032D0
:010EF00032CF
:010EF10032CE
:010EF20032CD
:010EF30032CC
:010EF40032CB
:010EF50032CA
:010EF60032C9
:010EF70032C8
:010EF80032C7
:010EF90032C6
:010EFA0032C5
:010EFB0032C4
:010EFC0032C3
:010EFD0032C2
:010EFE0032C1
:010EFF0032C0
:10008000E4FFEFC39562507074222FF8E6F520C2AA
:10009000B6A20792B4D2B6A2B59207C2B6A2069291
:1000A000B4D2B6A2B59206C2B6A20592B4D2B6A296
:1000B000B59205C2B6A20492B4D2B6A2B59204C259
:1000C000B6A20392B4D2B6A2B59203C2B6A202926D
:1000D000B4D2B6A2B59202C2B6A20192B4D2B6A26E
:1000E000B59201C2B6A20092B4D2B6A2B592007483
:0800F000222FF8A6200F808AE0
:0100F80022E5
:100BE800E4FFEFC39562505074222FF8E6F520D247
:100BF800B6A20792B4C2B6D2B6A20692B4C2B6D210
:100C0800B6A20592B4C2B6D2B6A20492B4C2B6D203
:100C1800B6A20392B4C2B6D2B6A20292B4C2B6D2F7
:100C2800B6A20192B4C2B6D2B6A20092B4C2B67449
:080C3800222FF8A6200F80AA6C
:010C40002291
:03004300020A00AE
:100A0000020DEB00020C8600020E3900020E1200ED
:100A1000020C4100020B8E000209FF00020EDD00F5
:100A2000020EDE00020EDF00020EE000020EE10008
:100A3000020EE200020EE300020EE400020EE500E8
:100A4000020EE600020EDD00020EE700020EE800D4
:100A5000020EE900020EEA00020EEB00020EEC00AC
:100A6000020EED00020EDD00020EDD00020EDD00C2
:100A7000020EEE00020EEF00020EF000020EF10078
:100A8000020EF200020EF300020EF400020EF50058
:100A9000020EF600020EF700020EF800020EF90038
:100AA000020EFA00020EFB00020EFC00020EFD0018
:080AB000020EFE00020EFF0021
:100D940090E682E030E004E020E60B90E682E0306A
:100DA400E119E030E71590E680E04401F07F147E1D
:0C0DB400001209B590E680E054FEF02229
:100D6500300C0990E680E0440AF0800790E680E0C8
:100D75004408F07FDC7E051209B590E65D74FFF04E
:0F0D850090E65FF05391EF90E680E054F7F02294
:080EC900E4F51FD2E9D2AF22CB
:100CC700AD0790E678E020E6F9C2E990E678E044DF
:100CD70080F0ED25E090E679F090E678E030E0F9F5
:100CE70090E678E04440F090E678E020E6F990E678
:080CF70078E030E1D6D2E922D9
:100D3300AC0790E678E020E6F9E51F702390E678AB
:100D4300E04480F0EC25E090E679F08D1AAF03A93A
:100D530007751B018A1C891DE4F51E751F01D3222B
:020D6300C322A9
:100CFF00AC0790E678E020E6F9E51F702590E678DE
:100D0F00E04480F0EC25E0440190E679F08D1AAFD5
:100D1F0003A907751B018A1C891DE4F51E751F03A6
:040D2F00D322C322E6
:03004B0002082187
:10082100C0E0C083C082C085C084C086758600C018
:10083100D075D000C000C001C002C003C006C0070F
:1008410090E678E030E206751F0602090B90E67823
:10085100E020E10CE51F64026006751F0702090B29
:10086100E51F24FE605F14603624FE70030208FC5D
:1008710024FC70030209082408600302090BAB1B66
:10088100AA1CA91DAF1E051E8F82758300120B2E97
:1008910090E679F0E51E651A7070751F05806B9002
:1008A100E679E0AB1BAA1CA91DAE1E8E82758300E2
:1008B100120B5B751F02E51A6401704E90E678E039
:1008C1004420F08045E51A24FEB51E0790E678E045
:1008D1004420F0E51A14B51E0A90E678E04440F091
:1008E100751F0090E679E0AB1BAA1CA91DAE1E8EF8
:1008F10082758300120B5B051E800F90E678E04441
:1009010040F0751F008003751F005391DFD007D0A1
:1009110006D003D002D001D000D0D0D086D084D070
:0809210085D082D083D0E032C2
:020DC000A90781
:100DC200AE6FAF708F828E83A3E064037017AD01A4
:100DD20019ED7001228F828E83E07C002FFDEC3EA4
:080DE200FEAF0580DFE4FEFF17
:010DEA0022E6
:100E5E0090E682E044C0F090E681F0438701000006
:040E6E00000000225E
:1009B5008E188F1990E600E054187012E51924017D
:1009C500FFE43518C313F518EF13F519801590E6F4
:1009D50000E05418FFBF100BE51925E0F519E518DF
:1009E50033F518E5191519AE18700215184E60057E
:0609F500120E7280EE22DA
:100E72007400F58690FDA57C05A3E582458370F993
:010E8200224D
:03000000020929C9
:0C092900787FE4F6D8FD75817502097036
:100B2E00BB010CE58229F582E5833AF583E022507C
:100B3E0006E92582F8E622BBFE06E92582F8E222C6
:0D0B4E00E58229F582E5833AF583E49322E0
:100B5B00F8BB010DE58229F582E5833AF583E8F0D0
:100B6B00225006E92582C8F622BBFE05E92582C87C
:020B7B00F22264
:100B7D00EB9FF5F0EA9E42F0E99D42F0E89C45F0CE
:010B8D002245
:100935000203EBE493A3F8E493A34003F68001F2EA
:1009450008DFF48029E493A3F85407240CC8C333C3
:10095500C4540F4420C8834004F456800146F6DF92
:10096500E4800B01020408102040809000F9E47E29
:10097500019360BCA3FF543F30E509541FFEE49387
:10098500A360010ECF54C025E060A840B8E493A34E
:10099500FAE493A3F8E493A3C8C582C8CAC583CA79
:1009A500F0A3C8C582C8CAC583CADFE9DEE780BE31
:0100FF000000
:00000001FF
